{
  "contractName": "Fund",
  "abi": [
    {
      "inputs": [],
      "stateMutability": "nonpayable",
      "type": "constructor"
    },
    {
      "anonymous": false,
      "inputs": [
        {
          "indexed": true,
          "internalType": "address",
          "name": "_campaignOwner",
          "type": "address"
        },
        {
          "indexed": false,
          "internalType": "uint256",
          "name": "_campaignId",
          "type": "uint256"
        }
      ],
      "name": "MyCampaign",
      "type": "event"
    },
    {
      "anonymous": false,
      "inputs": [
        {
          "indexed": true,
          "internalType": "address",
          "name": "_contributor",
          "type": "address"
        },
        {
          "indexed": true,
          "internalType": "address",
          "name": "_campaignOwner",
          "type": "address"
        },
        {
          "indexed": true,
          "internalType": "uint256",
          "name": "_campaignId",
          "type": "uint256"
        },
        {
          "indexed": false,
          "internalType": "uint256",
          "name": "amount",
          "type": "uint256"
        }
      ],
      "name": "MyContribution",
      "type": "event"
    },
    {
      "anonymous": false,
      "inputs": [
        {
          "indexed": true,
          "internalType": "address",
          "name": "previousOwner",
          "type": "address"
        },
        {
          "indexed": true,
          "internalType": "address",
          "name": "newOwner",
          "type": "address"
        }
      ],
      "name": "OwnershipTransferred",
      "type": "event"
    },
    {
      "anonymous": false,
      "inputs": [
        {
          "indexed": true,
          "internalType": "address",
          "name": "_campaignOwner",
          "type": "address"
        },
        {
          "indexed": true,
          "internalType": "uint256",
          "name": "_campaignId",
          "type": "uint256"
        },
        {
          "indexed": true,
          "internalType": "address",
          "name": "_contributor",
          "type": "address"
        },
        {
          "indexed": false,
          "internalType": "uint256",
          "name": "amount",
          "type": "uint256"
        }
      ],
      "name": "RefundedAmount",
      "type": "event"
    },
    {
      "anonymous": false,
      "inputs": [
        {
          "indexed": true,
          "internalType": "address",
          "name": "_campaignOwner",
          "type": "address"
        },
        {
          "indexed": true,
          "internalType": "uint256",
          "name": "_campaignId",
          "type": "uint256"
        }
      ],
      "name": "SuspendedCampaign",
      "type": "event"
    },
    {
      "anonymous": false,
      "inputs": [
        {
          "indexed": true,
          "internalType": "address",
          "name": "_campaignOwner",
          "type": "address"
        },
        {
          "indexed": true,
          "internalType": "address",
          "name": "_campaignBeneficiary",
          "type": "address"
        },
        {
          "indexed": false,
          "internalType": "uint256",
          "name": "_campaignId",
          "type": "uint256"
        },
        {
          "indexed": false,
          "internalType": "uint256",
          "name": "amount",
          "type": "uint256"
        }
      ],
      "name": "Withdrawal",
      "type": "event"
    },
    {
      "inputs": [],
      "name": "owner",
      "outputs": [
        {
          "internalType": "address",
          "name": "",
          "type": "address"
        }
      ],
      "stateMutability": "view",
      "type": "function",
      "constant": true
    },
    {
      "inputs": [
        {
          "internalType": "address",
          "name": "newOwner",
          "type": "address"
        }
      ],
      "name": "transferOwnership",
      "outputs": [],
      "stateMutability": "nonpayable",
      "type": "function"
    },
    {
      "inputs": [
        {
          "internalType": "address",
          "name": "_campainOwner",
          "type": "address"
        },
        {
          "internalType": "uint256",
          "name": "_campaignId",
          "type": "uint256"
        }
      ],
      "name": "getCampaign",
      "outputs": [
        {
          "components": [
            {
              "internalType": "address",
              "name": "owner",
              "type": "address"
            },
            {
              "internalType": "address",
              "name": "beneficiary",
              "type": "address"
            },
            {
              "internalType": "uint256",
              "name": "raisedValue",
              "type": "uint256"
            },
            {
              "internalType": "string",
              "name": "campaignUrl",
              "type": "string"
            },
            {
              "internalType": "bool",
              "name": "hasMinimumRaisedValue",
              "type": "bool"
            },
            {
              "internalType": "uint256",
              "name": "minimumRaisedValue",
              "type": "uint256"
            },
            {
              "internalType": "uint256",
              "name": "expireAfter",
              "type": "uint256"
            },
            {
              "internalType": "enum Fund.State",
              "name": "state",
              "type": "uint8"
            }
          ],
          "internalType": "struct Fund.Campaign",
          "name": "_campaign",
          "type": "tuple"
        }
      ],
      "stateMutability": "view",
      "type": "function",
      "constant": true
    },
    {
      "inputs": [
        {
          "internalType": "address",
          "name": "_contributor",
          "type": "address"
        },
        {
          "internalType": "uint256",
          "name": "_campaignId",
          "type": "uint256"
        }
      ],
      "name": "getContribution",
      "outputs": [
        {
          "components": [
            {
              "internalType": "uint256",
              "name": "amount",
              "type": "uint256"
            },
            {
              "internalType": "address",
              "name": "contributor",
              "type": "address"
            },
            {
              "internalType": "uint256",
              "name": "campaignId",
              "type": "uint256"
            }
          ],
          "internalType": "struct Fund.Contribution",
          "name": "_contribution",
          "type": "tuple"
        }
      ],
      "stateMutability": "view",
      "type": "function",
      "constant": true
    },
    {
      "inputs": [
        {
          "internalType": "uint256",
          "name": "_campaignId",
          "type": "uint256"
        }
      ],
      "name": "withdraw",
      "outputs": [],
      "stateMutability": "nonpayable",
      "type": "function"
    },
    {
      "inputs": [
        {
          "internalType": "address",
          "name": "_beneficiary",
          "type": "address"
        },
        {
          "internalType": "string",
          "name": "_campaignUrl",
          "type": "string"
        },
        {
          "internalType": "bool",
          "name": "_hasMinimumRaisedValue",
          "type": "bool"
        },
        {
          "internalType": "uint256",
          "name": "_minimumRaisedValue",
          "type": "uint256"
        },
        {
          "internalType": "uint256",
          "name": "_expireAfter",
          "type": "uint256"
        }
      ],
      "name": "addCampaign",
      "outputs": [],
      "stateMutability": "nonpayable",
      "type": "function"
    },
    {
      "inputs": [
        {
          "internalType": "address",
          "name": "_campaignOwner",
          "type": "address"
        },
        {
          "internalType": "uint256",
          "name": "_campaignId",
          "type": "uint256"
        }
      ],
      "name": "contribute",
      "outputs": [],
      "stateMutability": "payable",
      "type": "function",
      "payable": true
    },
    {
      "inputs": [
        {
          "internalType": "address",
          "name": "_campaignOwnerAddress",
          "type": "address"
        },
        {
          "internalType": "uint256",
          "name": "_campaignId",
          "type": "uint256"
        }
      ],
      "name": "refundClaim",
      "outputs": [],
      "stateMutability": "nonpayable",
      "type": "function"
    },
    {
      "inputs": [
        {
          "internalType": "address",
          "name": "_campaignOwner",
          "type": "address"
        },
        {
          "internalType": "uint256",
          "name": "_campaignId",
          "type": "uint256"
        }
      ],
      "name": "suspendCampaign",
      "outputs": [],
      "stateMutability": "nonpayable",
      "type": "function"
    },
    {
      "inputs": [],
      "name": "renounceOwnership",
      "outputs": [],
      "stateMutability": "nonpayable",
      "type": "function"
    }
  ],
  "bytecode": "0x608060405260016003553480156200001657600080fd5b50620000376200002b6200003d60201b60201c565b6200004560201b60201c565b62000109565b600033905090565b60008060009054906101000a900473ffffffffffffffffffffffffffffffffffffffff169050816000806101000a81548173ffffffffffffffffffffffffffffffffffffffff021916908373ffffffffffffffffffffffffffffffffffffffff1602179055508173ffffffffffffffffffffffffffffffffffffffff168173ffffffffffffffffffffffffffffffffffffffff167f8be0079c531659141344cd1fd0a4f28419497f9722a3daafe3b4186f6b6457e060405160405180910390a35050565b612e0080620001196000396000f3fe6080604052600436106100915760003560e01c8063715018a611610059578063715018a6146101775780638418cd991461018e5780638da5cb5b146101aa578063b08328b4146101d5578063f2fde38b1461021257610091565b806304274684146100965780631715a5a1146100bf57806326bfa6ec146100e85780632e1a7d4d14610111578063653c95b81461013a575b600080fd5b3480156100a257600080fd5b506100bd60048036038101906100b8919061222e565b61023b565b005b3480156100cb57600080fd5b506100e660048036038101906100e1919061222e565b610443565b005b3480156100f457600080fd5b5061010f600480360381019061010a919061230b565b6109d5565b005b34801561011d57600080fd5b50610138600480360381019061013391906123a5565b610d32565b005b34801561014657600080fd5b50610161600480360381019061015c919061222e565b61132c565b60405161016e9190612432565b60405180910390f35b34801561018357600080fd5b5061018c611401565b005b6101a860048036038101906101a3919061222e565b61147f565b005b3480156101b657600080fd5b506101bf611c26565b6040516101cc919061245c565b60405180910390f35b3480156101e157600080fd5b506101fc60048036038101906101f7919061222e565b611c4f565b6040516102099190612646565b60405180910390f35b34801561021e57600080fd5b5061023960048036038101906102349190612668565b611e6d565b005b610243611f65565b73ffffffffffffffffffffffffffffffffffffffff16610261611c26565b73ffffffffffffffffffffffffffffffffffffffff16146102b7576040517f08c379a00000000000000000000000000000000000000000000000000000000081526004016102ae906126f2565b60405180910390fd5b600160038111156102cb576102ca61251f565b5b600160008473ffffffffffffffffffffffffffffffffffffffff1673ffffffffffffffffffffffffffffffffffffffff168152602001908152602001600020600083815260200190815260200160002060070160009054906101000a900460ff16600381111561033e5761033d61251f565b5b141561037f576040517f08c379a000000000000000000000000000000000000000000000000000000000815260040161037690612784565b60405180910390fd5b6002600160008473ffffffffffffffffffffffffffffffffffffffff1673ffffffffffffffffffffffffffffffffffffffff168152602001908152602001600020600083815260200190815260200160002060070160006101000a81548160ff021916908360038111156103f6576103f561251f565b5b0217905550808273ffffffffffffffffffffffffffffffffffffffff167f2e6a457d76b90f7f9a351e3242a15cd2e99fc7feb3a124e851c4bdbbfeb888d360405160405180910390a35050565b600160008373ffffffffffffffffffffffffffffffffffffffff1673ffffffffffffffffffffffffffffffffffffffff1681526020019081526020016000206000828152602001908152602001600020604051806101000160405290816000820160009054906101000a900473ffffffffffffffffffffffffffffffffffffffff1673ffffffffffffffffffffffffffffffffffffffff1673ffffffffffffffffffffffffffffffffffffffff1681526020016001820160009054906101000a900473ffffffffffffffffffffffffffffffffffffffff1673ffffffffffffffffffffffffffffffffffffffff1673ffffffffffffffffffffffffffffffffffffffff16815260200160028201548152602001600382018054610565906127d3565b80601f0160208091040260200160405190810160405280929190818152602001828054610591906127d3565b80156105de5780601f106105b3576101008083540402835291602001916105de565b820191906000526020600020905b8154815290600101906020018083116105c157829003601f168201915b505050505081526020016004820160009054906101000a900460ff1615151515815260200160058201548152602001600682015481526020016007820160009054906101000a900460ff16600381111561063b5761063a61251f565b5b600381111561064d5761064c61251f565b5b815250506003808111156106645761066361251f565b5b8160e00151600381111561067b5761067a61251f565b5b14806106af5750600260038111156106965761069561251f565b5b8160e0015160038111156106ad576106ac61251f565b5b145b6106ee576040517f08c379a00000000000000000000000000000000000000000000000000000000081526004016106e59061289d565b60405180910390fd5b600260003373ffffffffffffffffffffffffffffffffffffffff1673ffffffffffffffffffffffffffffffffffffffff168152602001908152602001600020600083815260200190815260200160002060010160009054906101000a900473ffffffffffffffffffffffffffffffffffffffff1673ffffffffffffffffffffffffffffffffffffffff166108fc600260003373ffffffffffffffffffffffffffffffffffffffff1673ffffffffffffffffffffffffffffffffffffffff1681526020019081526020016000206000858152602001908152602001600020600001549081150290604051600060405180830381858888f193505050501580156107fa573d6000803e3d6000fd5b50600260003373ffffffffffffffffffffffffffffffffffffffff1673ffffffffffffffffffffffffffffffffffffffff168152602001908152602001600020600083815260200190815260200160002060000154600160008573ffffffffffffffffffffffffffffffffffffffff1673ffffffffffffffffffffffffffffffffffffffff168152602001908152602001600020600084815260200190815260200160002060020160008282546108b191906128ec565b925050819055506000600260003373ffffffffffffffffffffffffffffffffffffffff1673ffffffffffffffffffffffffffffffffffffffff16815260200190815260200160002060008481526020019081526020016000206000015490506000600260003373ffffffffffffffffffffffffffffffffffffffff1673ffffffffffffffffffffffffffffffffffffffff1681526020019081526020016000206000858152602001908152602001600020600001819055503373ffffffffffffffffffffffffffffffffffffffff16838573ffffffffffffffffffffffffffffffffffffffff167fd3c348f1a0dc838305d7eadbb442092cd32920e992c33c2f7c229aabbcfcf2fa846040516109c7919061292f565b60405180910390a450505050565b8062015180426109e5919061294a565b811015610a27576040517f08c379a0000000000000000000000000000000000000000000000000000000008152600401610a1e90612a38565b60405180910390fd5b600073ffffffffffffffffffffffffffffffffffffffff168773ffffffffffffffffffffffffffffffffffffffff161415610a97576040517f08c379a0000000000000000000000000000000000000000000000000000000008152600401610a8e90612aca565b60405180910390fd5b6040518061010001604052803373ffffffffffffffffffffffffffffffffffffffff1681526020018873ffffffffffffffffffffffffffffffffffffffff1681526020016000815260200187878080601f016020809104026020016040519081016040528093929190818152602001838380828437600081840152601f19601f820116905080830192505050505050508152602001851515815260200184815260200183815260200160006003811115610b5457610b5361251f565b5b815250600160003373ffffffffffffffffffffffffffffffffffffffff1673ffffffffffffffffffffffffffffffffffffffff1681526020019081526020016000206000600354815260200190815260200160002060008201518160000160006101000a81548173ffffffffffffffffffffffffffffffffffffffff021916908373ffffffffffffffffffffffffffffffffffffffff16021790555060208201518160010160006101000a81548173ffffffffffffffffffffffffffffffffffffffff021916908373ffffffffffffffffffffffffffffffffffffffff160217905550604082015181600201556060820151816003019080519060200190610c5d929190612031565b5060808201518160040160006101000a81548160ff02191690831515021790555060a0820151816005015560c0820151816006015560e08201518160070160006101000a81548160ff02191690836003811115610cbd57610cbc61251f565b5b02179055509050503373ffffffffffffffffffffffffffffffffffffffff167fd8762e1294e388f7530291bd0b5b3c98c73b1a82b4b8deeccbe4ff126f155a5860036000815480929190610d1090612aea565b91905055604051610d21919061292f565b60405180910390a250505050505050565b600160003373ffffffffffffffffffffffffffffffffffffffff1673ffffffffffffffffffffffffffffffffffffffff1681526020019081526020016000206000828152602001908152602001600020604051806101000160405290816000820160009054906101000a900473ffffffffffffffffffffffffffffffffffffffff1673ffffffffffffffffffffffffffffffffffffffff1673ffffffffffffffffffffffffffffffffffffffff1681526020016001820160009054906101000a900473ffffffffffffffffffffffffffffffffffffffff1673ffffffffffffffffffffffffffffffffffffffff1673ffffffffffffffffffffffffffffffffffffffff16815260200160028201548152602001600382018054610e54906127d3565b80601f0160208091040260200160405190810160405280929190818152602001828054610e80906127d3565b8015610ecd5780601f10610ea257610100808354040283529160200191610ecd565b820191906000526020600020905b815481529060010190602001808311610eb057829003601f168201915b505050505081526020016004820160009054906101000a900460ff1615151515815260200160058201548152602001600682015481526020016007820160009054906101000a900460ff166003811115610f2a57610f2961251f565b5b6003811115610f3c57610f3b61251f565b5b8152505060006003811115610f5457610f5361251f565b5b8160e001516003811115610f6b57610f6a61251f565b5b148015610fa757503373ffffffffffffffffffffffffffffffffffffffff16816000015173ffffffffffffffffffffffffffffffffffffffff16145b8015610fd5575080608001518015610fc757508060a00151816040015110155b80610fd457508060800151155b5b611014576040517f08c379a000000000000000000000000000000000000000000000000000000000815260040161100b90612bf1565b60405180910390fd5b600160003373ffffffffffffffffffffffffffffffffffffffff1673ffffffffffffffffffffffffffffffffffffffff168152602001908152602001600020600083815260200190815260200160002060010160009054906101000a900473ffffffffffffffffffffffffffffffffffffffff1673ffffffffffffffffffffffffffffffffffffffff166108fc600160003373ffffffffffffffffffffffffffffffffffffffff1673ffffffffffffffffffffffffffffffffffffffff1681526020019081526020016000206000858152602001908152602001600020600201549081150290604051600060405180830381858888f19350505050158015611120573d6000803e3d6000fd5b506000600160003373ffffffffffffffffffffffffffffffffffffffff1673ffffffffffffffffffffffffffffffffffffffff16815260200190815260200160002060008481526020019081526020016000206002015490506000600160003373ffffffffffffffffffffffffffffffffffffffff1673ffffffffffffffffffffffffffffffffffffffff16815260200190815260200160002060008581526020019081526020016000206002018190555060018060003373ffffffffffffffffffffffffffffffffffffffff1673ffffffffffffffffffffffffffffffffffffffff168152602001908152602001600020600085815260200190815260200160002060070160006101000a81548160ff021916908360038111156112485761124761251f565b5b0217905550600160003373ffffffffffffffffffffffffffffffffffffffff1673ffffffffffffffffffffffffffffffffffffffff168152602001908152602001600020600084815260200190815260200160002060010160009054906101000a900473ffffffffffffffffffffffffffffffffffffffff1673ffffffffffffffffffffffffffffffffffffffff163373ffffffffffffffffffffffffffffffffffffffff167fc2b4a290c20fb28939d29f102514fbffd2b73c059ffba8b78250c94161d5fcc6858460405161131f929190612c11565b60405180910390a3505050565b6113346120b7565b600260008473ffffffffffffffffffffffffffffffffffffffff1673ffffffffffffffffffffffffffffffffffffffff1681526020019081526020016000206000838152602001908152602001600020604051806060016040529081600082015481526020016001820160009054906101000a900473ffffffffffffffffffffffffffffffffffffffff1673ffffffffffffffffffffffffffffffffffffffff1673ffffffffffffffffffffffffffffffffffffffff168152602001600282015481525050905092915050565b611409611f65565b73ffffffffffffffffffffffffffffffffffffffff16611427611c26565b73ffffffffffffffffffffffffffffffffffffffff161461147d576040517f08c379a0000000000000000000000000000000000000000000000000000000008152600401611474906126f2565b60405180910390fd5b565b600160008373ffffffffffffffffffffffffffffffffffffffff1673ffffffffffffffffffffffffffffffffffffffff1681526020019081526020016000206000828152602001908152602001600020604051806101000160405290816000820160009054906101000a900473ffffffffffffffffffffffffffffffffffffffff1673ffffffffffffffffffffffffffffffffffffffff1673ffffffffffffffffffffffffffffffffffffffff1681526020016001820160009054906101000a900473ffffffffffffffffffffffffffffffffffffffff1673ffffffffffffffffffffffffffffffffffffffff1673ffffffffffffffffffffffffffffffffffffffff168152602001600282015481526020016003820180546115a1906127d3565b80601f01602080910402602001604051908101604052809291908181526020018280546115cd906127d3565b801561161a5780601f106115ef5761010080835404028352916020019161161a565b820191906000526020600020905b8154815290600101906020018083116115fd57829003601f168201915b505050505081526020016004820160009054906101000a900460ff1615151515815260200160058201548152602001600682015481526020016007820160009054906101000a900460ff1660038111156116775761167661251f565b5b60038111156116895761168861251f565b5b8152505060008160c0015114156116d5576040517f08c379a00000000000000000000000000000000000000000000000000000000081526004016116cc90612c86565b60405180910390fd5b600060038111156116e9576116e861251f565b5b8160e001516003811115611700576116ff61251f565b5b14611740576040517f08c379a000000000000000000000000000000000000000000000000000000000815260040161173790612d18565b60405180910390fd5b34600160008573ffffffffffffffffffffffffffffffffffffffff1673ffffffffffffffffffffffffffffffffffffffff168152602001908152602001600020600084815260200190815260200160002060020160008282546117a3919061294a565b9250508190555034600260003373ffffffffffffffffffffffffffffffffffffffff1673ffffffffffffffffffffffffffffffffffffffff1681526020019081526020016000206000848152602001908152602001600020600001600082825461180d919061294a565b9250508190555033600260003373ffffffffffffffffffffffffffffffffffffffff1673ffffffffffffffffffffffffffffffffffffffff168152602001908152602001600020600084815260200190815260200160002060010160006101000a81548173ffffffffffffffffffffffffffffffffffffffff021916908373ffffffffffffffffffffffffffffffffffffffff16021790555081600260003373ffffffffffffffffffffffffffffffffffffffff1673ffffffffffffffffffffffffffffffffffffffff1681526020019081526020016000206000848152602001908152602001600020600201819055506000600160008573ffffffffffffffffffffffffffffffffffffffff1673ffffffffffffffffffffffffffffffffffffffff1681526020019081526020016000206000848152602001908152602001600020604051806101000160405290816000820160009054906101000a900473ffffffffffffffffffffffffffffffffffffffff1673ffffffffffffffffffffffffffffffffffffffff1673ffffffffffffffffffffffffffffffffffffffff1681526020016001820160009054906101000a900473ffffffffffffffffffffffffffffffffffffffff1673ffffffffffffffffffffffffffffffffffffffff1673ffffffffffffffffffffffffffffffffffffffff16815260200160028201548152602001600382018054611a22906127d3565b80601f0160208091040260200160405190810160405280929190818152602001828054611a4e906127d3565b8015611a9b5780601f10611a7057610100808354040283529160200191611a9b565b820191906000526020600020905b815481529060010190602001808311611a7e57829003601f168201915b505050505081526020016004820160009054906101000a900460ff1615151515815260200160058201548152602001600682015481526020016007820160009054906101000a900460ff166003811115611af857611af761251f565b5b6003811115611b0a57611b0961251f565b5b815250509050428160c0015111158015611b38575080608001518015611b37575080604001518160a00151115b5b15611bba576003600160008673ffffffffffffffffffffffffffffffffffffffff1673ffffffffffffffffffffffffffffffffffffffff168152602001908152602001600020600085815260200190815260200160002060070160006101000a81548160ff02191690836003811115611bb457611bb361251f565b5b02179055505b828473ffffffffffffffffffffffffffffffffffffffff163373ffffffffffffffffffffffffffffffffffffffff167faf09e3ada607a2dbf6bfeab2d36d87ba8c79317b64746947f00a25b74cbb289434604051611c18919061292f565b60405180910390a450505050565b60008060009054906101000a900473ffffffffffffffffffffffffffffffffffffffff16905090565b611c576120ee565b600160008473ffffffffffffffffffffffffffffffffffffffff1673ffffffffffffffffffffffffffffffffffffffff1681526020019081526020016000206000838152602001908152602001600020604051806101000160405290816000820160009054906101000a900473ffffffffffffffffffffffffffffffffffffffff1673ffffffffffffffffffffffffffffffffffffffff1673ffffffffffffffffffffffffffffffffffffffff1681526020016001820160009054906101000a900473ffffffffffffffffffffffffffffffffffffffff1673ffffffffffffffffffffffffffffffffffffffff1673ffffffffffffffffffffffffffffffffffffffff16815260200160028201548152602001600382018054611d79906127d3565b80601f0160208091040260200160405190810160405280929190818152602001828054611da5906127d3565b8015611df25780601f10611dc757610100808354040283529160200191611df2565b820191906000526020600020905b815481529060010190602001808311611dd557829003601f168201915b505050505081526020016004820160009054906101000a900460ff1615151515815260200160058201548152602001600682015481526020016007820160009054906101000a900460ff166003811115611e4f57611e4e61251f565b5b6003811115611e6157611e6061251f565b5b81525050905092915050565b611e75611f65565b73ffffffffffffffffffffffffffffffffffffffff16611e93611c26565b73ffffffffffffffffffffffffffffffffffffffff1614611ee9576040517f08c379a0000000000000000000000000000000000000000000000000000000008152600401611ee0906126f2565b60405180910390fd5b600073ffffffffffffffffffffffffffffffffffffffff168173ffffffffffffffffffffffffffffffffffffffff161415611f59576040517f08c379a0000000000000000000000000000000000000000000000000000000008152600401611f5090612daa565b60405180910390fd5b611f6281611f6d565b50565b600033905090565b60008060009054906101000a900473ffffffffffffffffffffffffffffffffffffffff169050816000806101000a81548173ffffffffffffffffffffffffffffffffffffffff021916908373ffffffffffffffffffffffffffffffffffffffff1602179055508173ffffffffffffffffffffffffffffffffffffffff168173ffffffffffffffffffffffffffffffffffffffff167f8be0079c531659141344cd1fd0a4f28419497f9722a3daafe3b4186f6b6457e060405160405180910390a35050565b82805461203d906127d3565b90600052602060002090601f01602090048101928261205f57600085556120a6565b82601f1061207857805160ff19168380011785556120a6565b828001600101855582156120a6579182015b828111156120a557825182559160200191906001019061208a565b5b5090506120b39190612173565b5090565b604051806060016040528060008152602001600073ffffffffffffffffffffffffffffffffffffffff168152602001600081525090565b604051806101000160405280600073ffffffffffffffffffffffffffffffffffffffff168152602001600073ffffffffffffffffffffffffffffffffffffffff168152602001600081526020016060815260200160001515815260200160008152602001600081526020016000600381111561216d5761216c61251f565b5b81525090565b5b8082111561218c576000816000905550600101612174565b5090565b600080fd5b600080fd5b600073ffffffffffffffffffffffffffffffffffffffff82169050919050565b60006121c58261219a565b9050919050565b6121d5816121ba565b81146121e057600080fd5b50565b6000813590506121f2816121cc565b92915050565b6000819050919050565b61220b816121f8565b811461221657600080fd5b50565b60008135905061222881612202565b92915050565b6000806040838503121561224557612244612190565b5b6000612253858286016121e3565b925050602061226485828601612219565b9150509250929050565b600080fd5b600080fd5b600080fd5b60008083601f8401126122935761229261226e565b5b8235905067ffffffffffffffff8111156122b0576122af612273565b5b6020830191508360018202830111156122cc576122cb612278565b5b9250929050565b60008115159050919050565b6122e8816122d3565b81146122f357600080fd5b50565b600081359050612305816122df565b92915050565b60008060008060008060a0878903121561232857612327612190565b5b600061233689828a016121e3565b965050602087013567ffffffffffffffff81111561235757612356612195565b5b61236389828a0161227d565b9550955050604061237689828a016122f6565b935050606061238789828a01612219565b925050608061239889828a01612219565b9150509295509295509295565b6000602082840312156123bb576123ba612190565b5b60006123c984828501612219565b91505092915050565b6123db816121f8565b82525050565b6123ea816121ba565b82525050565b60608201600082015161240660008501826123d2565b50602082015161241960208501826123e1565b50604082015161242c60408501826123d2565b50505050565b600060608201905061244760008301846123f0565b92915050565b612456816121ba565b82525050565b6000602082019050612471600083018461244d565b92915050565b600081519050919050565b600082825260208201905092915050565b60005b838110156124b1578082015181840152602081019050612496565b838111156124c0576000848401525b50505050565b6000601f19601f8301169050919050565b60006124e282612477565b6124ec8185612482565b93506124fc818560208601612493565b612505816124c6565b840191505092915050565b612519816122d3565b82525050565b7f4e487b7100000000000000000000000000000000000000000000000000000000600052602160045260246000fd5b6004811061255f5761255e61251f565b5b50565b60008190506125708261254e565b919050565b600061258082612562565b9050919050565b61259081612575565b82525050565b6000610100830160008301516125af60008601826123e1565b5060208301516125c260208601826123e1565b5060408301516125d560408601826123d2565b50606083015184820360608601526125ed82826124d7565b91505060808301516126026080860182612510565b5060a083015161261560a08601826123d2565b5060c083015161262860c08601826123d2565b5060e083015161263b60e0860182612587565b508091505092915050565b600060208201905081810360008301526126608184612596565b905092915050565b60006020828403121561267e5761267d612190565b5b600061268c848285016121e3565b91505092915050565b600082825260208201905092915050565b7f4f776e61626c653a2063616c6c6572206973206e6f7420746865206f776e6572600082015250565b60006126dc602083612695565b91506126e7826126a6565b602082019050919050565b6000602082019050818103600083015261270b816126cf565b9050919050565b7f5468652063616d706169676e20697320616c726561647920636c6f7365642c2060008201527f61207374617465206368616e67652069736e277420616c6c6f77656400000000602082015250565b600061276e603c83612695565b915061277982612712565b604082019050919050565b6000602082019050818103600083015261279d81612761565b9050919050565b7f4e487b7100000000000000000000000000000000000000000000000000000000600052602260045260246000fd5b600060028204905060018216806127eb57607f821691505b602082108114156127ff576127fe6127a4565b5b50919050565b7f56616c75652063616e277420626520726566756e646564207768696c6520436160008201527f6d706169676e2069736e277420696e2045787069726564206f7220537573706560208201527f6e64656420737461746500000000000000000000000000000000000000000000604082015250565b6000612887604a83612695565b915061289282612805565b606082019050919050565b600060208201905081810360008301526128b68161287a565b9050919050565b7f4e487b7100000000000000000000000000000000000000000000000000000000600052601160045260246000fd5b60006128f7826121f8565b9150612902836121f8565b925082821015612915576129146128bd565b5b828203905092915050565b612929816121f8565b82525050565b60006020820190506129446000830184612920565b92915050565b6000612955826121f8565b9150612960836121f8565b9250827fffffffffffffffffffffffffffffffffffffffffffffffffffffffffffffffff03821115612995576129946128bd565b5b828201905092915050565b7f546865207370656369666965642065787069726174696f6e2064617465206f6660008201527f207468652063616d706169676e2073686f756c64206265206174206c6561737460208201527f206f6e6520646179206c6f6e6700000000000000000000000000000000000000604082015250565b6000612a22604d83612695565b9150612a2d826129a0565b606082019050919050565b60006020820190508181036000830152612a5181612a15565b9050919050565b7f5f62656e65666963696172793a2042656e65666963696172792063616e27742060008201527f626520746865207a65726f206164647265737300000000000000000000000000602082015250565b6000612ab4603383612695565b9150612abf82612a58565b604082019050919050565b60006020820190508181036000830152612ae381612aa7565b9050919050565b6000612af5826121f8565b91507fffffffffffffffffffffffffffffffffffffffffffffffffffffffffffffffff821415612b2857612b276128bd565b5b600182019050919050565b7f4d696e696d756d207261697365642056616c756520697320726571756972656460008201527f20616e64206e6f74207965742072656163686564206f72207468652063616d7060208201527f6169676e2069736e2774206163746976652c206f722063616c6c65722069736e60408201527f2774207468652063616d706169676e206f776e65722000000000000000000000606082015250565b6000612bdb607683612695565b9150612be682612b33565b608082019050919050565b60006020820190508181036000830152612c0a81612bce565b9050919050565b6000604082019050612c266000830185612920565b612c336020830184612920565b9392505050565b7f43616d706169676e20646f65736e277420657869737400000000000000000000600082015250565b6000612c70601683612695565b9150612c7b82612c3a565b602082019050919050565b60006020820190508181036000830152612c9f81612c63565b9050919050565b7f43616d706169676e2069736e277420696e20616e20616374697665207374617460008201527f6500000000000000000000000000000000000000000000000000000000000000602082015250565b6000612d02602183612695565b9150612d0d82612ca6565b604082019050919050565b60006020820190508181036000830152612d3181612cf5565b9050919050565b7f4f776e61626c653a206e6577206f776e657220697320746865207a65726f206160008201527f6464726573730000000000000000000000000000000000000000000000000000602082015250565b6000612d94602683612695565b9150612d9f82612d38565b604082019050919050565b60006020820190508181036000830152612dc381612d87565b905091905056fea26469706673582212208d89b35a7d70840310d1ff80c276b4334a2c5f70c933157ae0353952501aa74264736f6c634300080b0033",
  "immutableReferences": {},
  "source": "// SPDX-License-Identifier: MIT\n\npragma solidity 0.8.11;\n\n/// @title A title that should describe the contract/interface\n/// @author The name of the author\n/// @notice Explain to an end user what this does\n/// @dev Explain to a developer any extra details\n\nimport \"openzeppelin-solidity/contracts/access/Ownable.sol\";\n\n// Reminders\n// create an event that notifies the listeners after withdraw or creation of a campaign  \n// function that return all compaign belong to an address;\n// For gas optimization, the logic for user contracts, or user contribution should be done outside the blockchain by searching campaign or contribution\n\n\ncontract Fund is Ownable{\n\n    constructor() {\n        super;\n    }\n    \n    //************ State Variables ************\\\\\n\n   // To find the campaigns by owner address and the id of the campaign\n   mapping(address => mapping(uint => Campaign)) private campaign;\n   // To find contribution by Contributor address and id of the campaign \n   mapping(address => mapping(uint => Contribution)) private contribution;\n   // campaign id should be returned after the creation of the campaign\n   uint private campaignIdCounter = 1; \n\n\n   struct Campaign {\n        address owner; \n        address beneficiary; // the owner of the compaign can be the same as the beneficiary.\n        uint raisedValue;    // \n        string campaignUrl; // official website of the compaign\n        bool hasMinimumRaisedValue; // if true withdraw will be allowed if and only if minimum raised reached otherwise refund will be triggered\n        uint minimumRaisedValue;  // if hasMinimumRaisedValue is true\n        uint expireAfter; // if the date is exceeded the compaign is expired (Unix epoch time)\n        State state;\n    }\n   \n    enum State {\n        ACTIVE,\n        // if date passed and minimumRaisedValue rechead or or the entire raised value is withdrawn\n        CLOSED,\n       // if policy not respected\n        SUSPENDED,\n        // if date passed and minimumRaisedValue not rechead\n        EXPIRED\n    }\n\n    struct Contribution {\n        uint amount;\n        // in case of refund, the amount should be refunded\n        address contributor;\n        uint campaignId;\n    }\n     \n     //************ Functions ************\\\\\n     \n     function getCampaign(address _campainOwner ,uint _campaignId) view external returns (Campaign memory _campaign){\n      return campaign[_campainOwner][_campaignId];\n     }\n\n     function getContribution(address _contributor, uint _campaignId) view external returns (Contribution memory _contribution){\n      return contribution[_contributor][_campaignId];\n     }\n\n     // The withdrawal can be made only by the campaign owner and the amount will be sent to the beneficiary's address\n     // ownership checks isn't required, as the campaign is only found using the owner's address\n     function withdraw(uint _campaignId) external minValueCheck(campaign[msg.sender][_campaignId]) \n      {\n\n         payable(campaign[msg.sender][_campaignId].beneficiary).transfer(campaign[msg.sender][_campaignId].raisedValue); \n\n         uint withdrawnAmount = campaign[msg.sender][_campaignId].raisedValue;    \n\n         campaign[msg.sender][_campaignId].raisedValue = 0;\n         campaign[msg.sender][_campaignId].state = State.CLOSED;\n\n         emit Withdrawal(msg.sender, campaign[msg.sender][_campaignId].beneficiary, _campaignId, withdrawnAmount);\n     }\n\n     \n     //\n     function addCampaign(address _beneficiary, string calldata _campaignUrl,\n                           bool _hasMinimumRaisedValue, uint _minimumRaisedValue, uint _expireAfter) dateCheck(_expireAfter) external{\n     \n     require(_beneficiary != address(0), \"_beneficiary: Beneficiary can't be the zero address\");\n\n     campaign[msg.sender][campaignIdCounter]  = Campaign({\n             owner: msg.sender\n            ,beneficiary: _beneficiary\n            ,raisedValue: 0\n            ,campaignUrl: _campaignUrl\n            ,hasMinimumRaisedValue: _hasMinimumRaisedValue\n            ,minimumRaisedValue: _minimumRaisedValue\n            ,expireAfter: _expireAfter\n            ,state: State.ACTIVE });\n\n       emit MyCampaign(msg.sender, campaignIdCounter++);\n     }\n      \n      // Contribution allowed only for active campaign\n      function contribute(address _campaignOwner, uint _campaignId) contributionCheck(campaign[_campaignOwner][_campaignId]) payable external {\n              \n               \n               // Increase campain Balance\n               campaign[_campaignOwner][_campaignId].raisedValue += msg.value;\n               // Assign contribution\n               contribution[msg.sender][_campaignId].amount += msg.value;\n               contribution[msg.sender][_campaignId].contributor = msg.sender;\n               contribution[msg.sender][_campaignId].campaignId = _campaignId;\n\n          // To update campaign state in case of:\n          // if \"expireAfter\" date passed and minimumRaisedValue not rechead\n          Campaign memory _campaign = campaign[_campaignOwner][_campaignId];\n          if(_campaign.expireAfter <= block.timestamp \n          && (_campaign.hasMinimumRaisedValue && _campaign.minimumRaisedValue > _campaign.raisedValue ))\n                {             \n                campaign[_campaignOwner][_campaignId].state = State.EXPIRED;\n                }\n\n       emit MyContribution(msg.sender, _campaignOwner, _campaignId, msg.value);\n       }\n\n       \n       // To allow existing contributors to a campaign to withdraw their contribution.\n       // Gas fees are charged for the withdrawal, therefor please check the status of the campaign before calling the function.\n       // Withdrawal allowed only if the campaign is in SUSPENDED or EXPIRED state. \n       function refundClaim (address _campaignOwnerAddress ,uint _campaignId) external refundCheck(campaign[_campaignOwnerAddress][_campaignId]) {\n       \n        // Refund amount to the contributor\n        payable(contribution[msg.sender][_campaignId].contributor).transfer(contribution[msg.sender][_campaignId].amount);\n        // Reduce transfered amount from raisedValue for the campaign\n        campaign[_campaignOwnerAddress][_campaignId].raisedValue -= contribution[msg.sender][_campaignId].amount;\n        // Reset contributor amount to 0\n        uint refundedAmount = contribution[msg.sender][_campaignId].amount;\n        contribution[msg.sender][_campaignId].amount = 0;\n\n        emit RefundedAmount(_campaignOwnerAddress, _campaignId, msg.sender, refundedAmount);\n       }\n\n     // Put a campaign in suspend mode in the event of a reported violation,\n     // and refund for contributors will be enabled through refundClaim function\n     function suspendCampaign(address _campaignOwner, uint _campaignId ) external onlyOwner{\n        \n        require(campaign[_campaignOwner][_campaignId].state != State.CLOSED,\n         \"The campaign is already closed, a state change isn't allowed\");\n\n        campaign[_campaignOwner][_campaignId].state = State.SUSPENDED;\n        emit SuspendedCampaign(_campaignOwner, _campaignId);\n     } \n       \n\n        // The Contract should always have an owner\n        function renounceOwnership() public override onlyOwner {}\n\n\n        //************ Events ************\\\\ \n        event MyCampaign(address indexed _campaignOwner, uint _campaignId);\n        event MyContribution(address indexed _contributor, address indexed _campaignOwner,uint indexed _campaignId, uint amount);\n        event SuspendedCampaign(address indexed _campaignOwner, uint indexed _campaignId);\n        event RefundedAmount(address indexed _campaignOwner, uint indexed _campaignId,address indexed _contributor, uint amount);\n        event Withdrawal(address indexed _campaignOwner, address indexed _campaignBeneficiary, uint _campaignId, uint amount);\n\n        //************ Modifiers ************\\\\\n\n       // Check before withdrawing\n    modifier minValueCheck(Campaign memory _campaign) {\n         require(_campaign.state == State.ACTIVE && _campaign.owner == msg.sender &&\n         ((_campaign.hasMinimumRaisedValue && _campaign.raisedValue >= _campaign.minimumRaisedValue)\n         ||!_campaign.hasMinimumRaisedValue)\n         , \"Minimum raised Value is required and not yet reached or the campaign isn't active, or caller isn't the campaign owner \" );\n          \n         // To run the body of the function from which this modifier is called\n         _;\n     }\n\n     // check before refund\n     modifier refundCheck(Campaign memory _campaign) {\n         require(_campaign.state == State.EXPIRED || _campaign.state == State.SUSPENDED \n         , \"Value can't be refunded while Campaign isn't in Expired or Suspended state\" );\n          \n         // To run the body of the function from which this modifier is called\n         _;\n     }\n\n     modifier dateCheck(uint time) {\n         require(time >= (block.timestamp + 86400) \n         , \"The specified expiration date of the campaign should be at least one day long\" );\n          \n         // To run the body of the function from which this modifier is called\n         _;\n     }\n\n    modifier contributionCheck(Campaign memory _campaign) {\n         \n         require(_campaign.expireAfter != 0, \"Campaign doesn't exist\");\n         require(_campaign.state == State.ACTIVE, \"Campaign isn't in an active state\");\n                \n         // To run the body of the function from which this modifier is called\n         _;\n\n     }\n\n \n\n}",
  "sourcePath": "/home/adnan/Documents/VSCode-Workspace/Crowdfunding/contracts/Fund.sol",
  "compiler": {
    "name": "solc",
    "version": "0.8.11+commit.d7f03943.Emscripten.clang"
  },
  "schemaVersion": "3.4.5",
  "updatedAt": "2022-03-15T22:01:37.566Z",
  "networkType": "ethereum",
  "devdoc": {
    "kind": "dev",
    "methods": {
      "owner()": {
        "details": "Returns the address of the current owner."
      },
      "renounceOwnership()": {
        "details": "Leaves the contract without owner. It will not be possible to call `onlyOwner` functions anymore. Can only be called by the current owner. NOTE: Renouncing ownership will leave the contract without an owner, thereby removing any functionality that is only available to the owner."
      },
      "transferOwnership(address)": {
        "details": "Transfers ownership of the contract to a new account (`newOwner`). Can only be called by the current owner."
      }
    },
    "version": 1
  },
  "userdoc": {
    "kind": "user",
    "methods": {},
    "version": 1
  }
}