{
  "contractName": "Kvestado",
  "abi": [
    {
      "inputs": [],
      "stateMutability": "nonpayable",
      "type": "constructor"
    },
    {
      "anonymous": false,
      "inputs": [
        {
          "indexed": true,
          "internalType": "address",
          "name": "_campaignOwner",
          "type": "address"
        },
        {
          "indexed": false,
          "internalType": "uint256",
          "name": "_campaignId",
          "type": "uint256"
        }
      ],
      "name": "MyCampaign",
      "type": "event"
    },
    {
      "anonymous": false,
      "inputs": [
        {
          "indexed": true,
          "internalType": "address",
          "name": "_contributor",
          "type": "address"
        },
        {
          "indexed": true,
          "internalType": "address",
          "name": "_campaignOwner",
          "type": "address"
        },
        {
          "indexed": true,
          "internalType": "uint256",
          "name": "_campaignId",
          "type": "uint256"
        },
        {
          "indexed": false,
          "internalType": "uint256",
          "name": "amount",
          "type": "uint256"
        }
      ],
      "name": "MyContribution",
      "type": "event"
    },
    {
      "anonymous": false,
      "inputs": [
        {
          "indexed": true,
          "internalType": "address",
          "name": "previousOwner",
          "type": "address"
        },
        {
          "indexed": true,
          "internalType": "address",
          "name": "newOwner",
          "type": "address"
        }
      ],
      "name": "OwnershipTransferred",
      "type": "event"
    },
    {
      "anonymous": false,
      "inputs": [
        {
          "indexed": true,
          "internalType": "address",
          "name": "_campaignOwner",
          "type": "address"
        },
        {
          "indexed": true,
          "internalType": "uint256",
          "name": "_campaignId",
          "type": "uint256"
        },
        {
          "indexed": true,
          "internalType": "address",
          "name": "_contributor",
          "type": "address"
        },
        {
          "indexed": false,
          "internalType": "uint256",
          "name": "amount",
          "type": "uint256"
        }
      ],
      "name": "RefundedAmount",
      "type": "event"
    },
    {
      "anonymous": false,
      "inputs": [
        {
          "indexed": true,
          "internalType": "address",
          "name": "_campaignOwner",
          "type": "address"
        },
        {
          "indexed": true,
          "internalType": "uint256",
          "name": "_campaignId",
          "type": "uint256"
        }
      ],
      "name": "SuspendedCampaign",
      "type": "event"
    },
    {
      "anonymous": false,
      "inputs": [
        {
          "indexed": true,
          "internalType": "address",
          "name": "_campaignOwner",
          "type": "address"
        },
        {
          "indexed": true,
          "internalType": "address",
          "name": "_campaignBeneficiary",
          "type": "address"
        },
        {
          "indexed": false,
          "internalType": "uint256",
          "name": "_campaignId",
          "type": "uint256"
        },
        {
          "indexed": false,
          "internalType": "uint256",
          "name": "amount",
          "type": "uint256"
        }
      ],
      "name": "Withdrawal",
      "type": "event"
    },
    {
      "inputs": [],
      "name": "owner",
      "outputs": [
        {
          "internalType": "address",
          "name": "",
          "type": "address"
        }
      ],
      "stateMutability": "view",
      "type": "function",
      "constant": true
    },
    {
      "inputs": [
        {
          "internalType": "address",
          "name": "newOwner",
          "type": "address"
        }
      ],
      "name": "transferOwnership",
      "outputs": [],
      "stateMutability": "nonpayable",
      "type": "function"
    },
    {
      "inputs": [
        {
          "internalType": "address",
          "name": "_campainOwner",
          "type": "address"
        },
        {
          "internalType": "uint256",
          "name": "_campaignId",
          "type": "uint256"
        }
      ],
      "name": "getCampaign",
      "outputs": [
        {
          "components": [
            {
              "internalType": "address",
              "name": "owner",
              "type": "address"
            },
            {
              "internalType": "address",
              "name": "beneficiary",
              "type": "address"
            },
            {
              "internalType": "uint256",
              "name": "raisedValue",
              "type": "uint256"
            },
            {
              "internalType": "string",
              "name": "campaignUrl",
              "type": "string"
            },
            {
              "internalType": "bool",
              "name": "hasMinimumRaisedValue",
              "type": "bool"
            },
            {
              "internalType": "uint256",
              "name": "minimumRaisedValue",
              "type": "uint256"
            },
            {
              "internalType": "uint256",
              "name": "expireAfter",
              "type": "uint256"
            },
            {
              "internalType": "enum Kvestado.State",
              "name": "state",
              "type": "uint8"
            }
          ],
          "internalType": "struct Kvestado.Campaign",
          "name": "_campaign",
          "type": "tuple"
        }
      ],
      "stateMutability": "view",
      "type": "function",
      "constant": true
    },
    {
      "inputs": [
        {
          "internalType": "address",
          "name": "_contributor",
          "type": "address"
        },
        {
          "internalType": "uint256",
          "name": "_campaignId",
          "type": "uint256"
        }
      ],
      "name": "getContribution",
      "outputs": [
        {
          "components": [
            {
              "internalType": "uint256",
              "name": "amount",
              "type": "uint256"
            },
            {
              "internalType": "address",
              "name": "contributor",
              "type": "address"
            },
            {
              "internalType": "uint256",
              "name": "campaignId",
              "type": "uint256"
            }
          ],
          "internalType": "struct Kvestado.Contribution",
          "name": "_contribution",
          "type": "tuple"
        }
      ],
      "stateMutability": "view",
      "type": "function",
      "constant": true
    },
    {
      "inputs": [
        {
          "internalType": "uint256",
          "name": "_campaignId",
          "type": "uint256"
        }
      ],
      "name": "withdraw",
      "outputs": [],
      "stateMutability": "nonpayable",
      "type": "function"
    },
    {
      "inputs": [
        {
          "internalType": "address",
          "name": "_beneficiary",
          "type": "address"
        },
        {
          "internalType": "string",
          "name": "_campaignUrl",
          "type": "string"
        },
        {
          "internalType": "bool",
          "name": "_hasMinimumRaisedValue",
          "type": "bool"
        },
        {
          "internalType": "uint256",
          "name": "_minimumRaisedValue",
          "type": "uint256"
        },
        {
          "internalType": "uint256",
          "name": "_expireAfter",
          "type": "uint256"
        }
      ],
      "name": "addCampaign",
      "outputs": [],
      "stateMutability": "nonpayable",
      "type": "function"
    },
    {
      "inputs": [
        {
          "internalType": "address",
          "name": "_campaignOwner",
          "type": "address"
        },
        {
          "internalType": "uint256",
          "name": "_campaignId",
          "type": "uint256"
        }
      ],
      "name": "contribute",
      "outputs": [],
      "stateMutability": "payable",
      "type": "function",
      "payable": true
    },
    {
      "inputs": [
        {
          "internalType": "address",
          "name": "_campaignOwnerAddress",
          "type": "address"
        },
        {
          "internalType": "uint256",
          "name": "_campaignId",
          "type": "uint256"
        }
      ],
      "name": "refundClaim",
      "outputs": [],
      "stateMutability": "nonpayable",
      "type": "function"
    },
    {
      "inputs": [
        {
          "internalType": "address",
          "name": "_campaignOwner",
          "type": "address"
        },
        {
          "internalType": "uint256",
          "name": "_campaignId",
          "type": "uint256"
        }
      ],
      "name": "suspendCampaign",
      "outputs": [],
      "stateMutability": "nonpayable",
      "type": "function"
    },
    {
      "inputs": [],
      "name": "renounceOwnership",
      "outputs": [],
      "stateMutability": "nonpayable",
      "type": "function"
    }
  ],
  "bytecode": "0x608060405260016003553480156200001657600080fd5b50620000376200002b6200003d60201b60201c565b6200004560201b60201c565b62000109565b600033905090565b60008060009054906101000a900473ffffffffffffffffffffffffffffffffffffffff169050816000806101000a81548173ffffffffffffffffffffffffffffffffffffffff021916908373ffffffffffffffffffffffffffffffffffffffff1602179055508173ffffffffffffffffffffffffffffffffffffffff168173ffffffffffffffffffffffffffffffffffffffff167f8be0079c531659141344cd1fd0a4f28419497f9722a3daafe3b4186f6b6457e060405160405180910390a35050565b612f0080620001196000396000f3fe6080604052600436106100915760003560e01c8063715018a611610059578063715018a6146101775780638418cd991461018e5780638da5cb5b146101aa578063b08328b4146101d5578063f2fde38b1461021257610091565b806304274684146100965780631715a5a1146100bf57806326bfa6ec146100e85780632e1a7d4d14610111578063653c95b81461013a575b600080fd5b3480156100a257600080fd5b506100bd60048036038101906100b8919061229c565b61023b565b005b3480156100cb57600080fd5b506100e660048036038101906100e1919061229c565b61050a565b005b3480156100f457600080fd5b5061010f600480360381019061010a9190612379565b610a9c565b005b34801561011d57600080fd5b5061013860048036038101906101339190612413565b610df9565b005b34801561014657600080fd5b50610161600480360381019061015c919061229c565b61139a565b60405161016e91906124a0565b60405180910390f35b34801561018357600080fd5b5061018c61146f565b005b6101a860048036038101906101a3919061229c565b6114ed565b005b3480156101b657600080fd5b506101bf611c94565b6040516101cc91906124ca565b60405180910390f35b3480156101e157600080fd5b506101fc60048036038101906101f7919061229c565b611cbd565b60405161020991906126b4565b60405180910390f35b34801561021e57600080fd5b50610239600480360381019061023491906126d6565b611edb565b005b610243611fd3565b73ffffffffffffffffffffffffffffffffffffffff16610261611c94565b73ffffffffffffffffffffffffffffffffffffffff16146102b7576040517f08c379a00000000000000000000000000000000000000000000000000000000081526004016102ae90612760565b60405180910390fd5b600260038111156102cb576102ca61258d565b5b600160008473ffffffffffffffffffffffffffffffffffffffff1673ffffffffffffffffffffffffffffffffffffffff168152602001908152602001600020600083815260200190815260200160002060070160009054906101000a900460ff16600381111561033e5761033d61258d565b5b1461037e576040517f08c379a0000000000000000000000000000000000000000000000000000000008152600401610375906127f2565b60405180910390fd5b600160038111156103925761039161258d565b5b600160008473ffffffffffffffffffffffffffffffffffffffff1673ffffffffffffffffffffffffffffffffffffffff168152602001908152602001600020600083815260200190815260200160002060070160009054906101000a900460ff1660038111156104055761040461258d565b5b1415610446576040517f08c379a000000000000000000000000000000000000000000000000000000000815260040161043d90612884565b60405180910390fd5b6002600160008473ffffffffffffffffffffffffffffffffffffffff1673ffffffffffffffffffffffffffffffffffffffff168152602001908152602001600020600083815260200190815260200160002060070160006101000a81548160ff021916908360038111156104bd576104bc61258d565b5b0217905550808273ffffffffffffffffffffffffffffffffffffffff167f2e6a457d76b90f7f9a351e3242a15cd2e99fc7feb3a124e851c4bdbbfeb888d360405160405180910390a35050565b600160008373ffffffffffffffffffffffffffffffffffffffff1673ffffffffffffffffffffffffffffffffffffffff1681526020019081526020016000206000828152602001908152602001600020604051806101000160405290816000820160009054906101000a900473ffffffffffffffffffffffffffffffffffffffff1673ffffffffffffffffffffffffffffffffffffffff1673ffffffffffffffffffffffffffffffffffffffff1681526020016001820160009054906101000a900473ffffffffffffffffffffffffffffffffffffffff1673ffffffffffffffffffffffffffffffffffffffff1673ffffffffffffffffffffffffffffffffffffffff1681526020016002820154815260200160038201805461062c906128d3565b80601f0160208091040260200160405190810160405280929190818152602001828054610658906128d3565b80156106a55780601f1061067a576101008083540402835291602001916106a5565b820191906000526020600020905b81548152906001019060200180831161068857829003601f168201915b505050505081526020016004820160009054906101000a900460ff1615151515815260200160058201548152602001600682015481526020016007820160009054906101000a900460ff1660038111156107025761070161258d565b5b60038111156107145761071361258d565b5b8152505060038081111561072b5761072a61258d565b5b8160e0015160038111156107425761074161258d565b5b148061077657506002600381111561075d5761075c61258d565b5b8160e0015160038111156107745761077361258d565b5b145b6107b5576040517f08c379a00000000000000000000000000000000000000000000000000000000081526004016107ac9061299d565b60405180910390fd5b600260003373ffffffffffffffffffffffffffffffffffffffff1673ffffffffffffffffffffffffffffffffffffffff168152602001908152602001600020600083815260200190815260200160002060010160009054906101000a900473ffffffffffffffffffffffffffffffffffffffff1673ffffffffffffffffffffffffffffffffffffffff166108fc600260003373ffffffffffffffffffffffffffffffffffffffff1673ffffffffffffffffffffffffffffffffffffffff1681526020019081526020016000206000858152602001908152602001600020600001549081150290604051600060405180830381858888f193505050501580156108c1573d6000803e3d6000fd5b50600260003373ffffffffffffffffffffffffffffffffffffffff1673ffffffffffffffffffffffffffffffffffffffff168152602001908152602001600020600083815260200190815260200160002060000154600160008573ffffffffffffffffffffffffffffffffffffffff1673ffffffffffffffffffffffffffffffffffffffff1681526020019081526020016000206000848152602001908152602001600020600201600082825461097891906129ec565b925050819055506000600260003373ffffffffffffffffffffffffffffffffffffffff1673ffffffffffffffffffffffffffffffffffffffff16815260200190815260200160002060008481526020019081526020016000206000015490506000600260003373ffffffffffffffffffffffffffffffffffffffff1673ffffffffffffffffffffffffffffffffffffffff1681526020019081526020016000206000858152602001908152602001600020600001819055503373ffffffffffffffffffffffffffffffffffffffff16838573ffffffffffffffffffffffffffffffffffffffff167fd3c348f1a0dc838305d7eadbb442092cd32920e992c33c2f7c229aabbcfcf2fa84604051610a8e9190612a2f565b60405180910390a450505050565b806201518042610aac9190612a4a565b811015610aee576040517f08c379a0000000000000000000000000000000000000000000000000000000008152600401610ae590612b38565b60405180910390fd5b600073ffffffffffffffffffffffffffffffffffffffff168773ffffffffffffffffffffffffffffffffffffffff161415610b5e576040517f08c379a0000000000000000000000000000000000000000000000000000000008152600401610b5590612bca565b60405180910390fd5b6040518061010001604052803373ffffffffffffffffffffffffffffffffffffffff1681526020018873ffffffffffffffffffffffffffffffffffffffff1681526020016000815260200187878080601f016020809104026020016040519081016040528093929190818152602001838380828437600081840152601f19601f820116905080830192505050505050508152602001851515815260200184815260200183815260200160006003811115610c1b57610c1a61258d565b5b815250600160003373ffffffffffffffffffffffffffffffffffffffff1673ffffffffffffffffffffffffffffffffffffffff1681526020019081526020016000206000600354815260200190815260200160002060008201518160000160006101000a81548173ffffffffffffffffffffffffffffffffffffffff021916908373ffffffffffffffffffffffffffffffffffffffff16021790555060208201518160010160006101000a81548173ffffffffffffffffffffffffffffffffffffffff021916908373ffffffffffffffffffffffffffffffffffffffff160217905550604082015181600201556060820151816003019080519060200190610d2492919061209f565b5060808201518160040160006101000a81548160ff02191690831515021790555060a0820151816005015560c0820151816006015560e08201518160070160006101000a81548160ff02191690836003811115610d8457610d8361258d565b5b02179055509050503373ffffffffffffffffffffffffffffffffffffffff167fd8762e1294e388f7530291bd0b5b3c98c73b1a82b4b8deeccbe4ff126f155a5860036000815480929190610dd790612bea565b91905055604051610de89190612a2f565b60405180910390a250505050505050565b600160003373ffffffffffffffffffffffffffffffffffffffff1673ffffffffffffffffffffffffffffffffffffffff1681526020019081526020016000206000828152602001908152602001600020604051806101000160405290816000820160009054906101000a900473ffffffffffffffffffffffffffffffffffffffff1673ffffffffffffffffffffffffffffffffffffffff1673ffffffffffffffffffffffffffffffffffffffff1681526020016001820160009054906101000a900473ffffffffffffffffffffffffffffffffffffffff1673ffffffffffffffffffffffffffffffffffffffff1673ffffffffffffffffffffffffffffffffffffffff16815260200160028201548152602001600382018054610f1b906128d3565b80601f0160208091040260200160405190810160405280929190818152602001828054610f47906128d3565b8015610f945780601f10610f6957610100808354040283529160200191610f94565b820191906000526020600020905b815481529060010190602001808311610f7757829003601f168201915b505050505081526020016004820160009054906101000a900460ff1615151515815260200160058201548152602001600682015481526020016007820160009054906101000a900460ff166003811115610ff157610ff061258d565b5b60038111156110035761100261258d565b5b815250506000600381111561101b5761101a61258d565b5b8160e0015160038111156110325761103161258d565b5b14801561106e57503373ffffffffffffffffffffffffffffffffffffffff16816000015173ffffffffffffffffffffffffffffffffffffffff16145b801561109c57508060800151801561108e57508060a00151816040015110155b8061109b57508060800151155b5b6110db576040517f08c379a00000000000000000000000000000000000000000000000000000000081526004016110d290612cf1565b60405180910390fd5b600160003373ffffffffffffffffffffffffffffffffffffffff1673ffffffffffffffffffffffffffffffffffffffff168152602001908152602001600020600083815260200190815260200160002060010160009054906101000a900473ffffffffffffffffffffffffffffffffffffffff1673ffffffffffffffffffffffffffffffffffffffff166108fc600160003373ffffffffffffffffffffffffffffffffffffffff1673ffffffffffffffffffffffffffffffffffffffff1681526020019081526020016000206000858152602001908152602001600020600201549081150290604051600060405180830381858888f193505050501580156111e7573d6000803e3d6000fd5b506000600160003373ffffffffffffffffffffffffffffffffffffffff1673ffffffffffffffffffffffffffffffffffffffff168152602001908152602001600020600084815260200190815260200160002060020154905060018060003373ffffffffffffffffffffffffffffffffffffffff1673ffffffffffffffffffffffffffffffffffffffff168152602001908152602001600020600085815260200190815260200160002060070160006101000a81548160ff021916908360038111156112b6576112b561258d565b5b0217905550600160003373ffffffffffffffffffffffffffffffffffffffff1673ffffffffffffffffffffffffffffffffffffffff168152602001908152602001600020600084815260200190815260200160002060010160009054906101000a900473ffffffffffffffffffffffffffffffffffffffff1673ffffffffffffffffffffffffffffffffffffffff163373ffffffffffffffffffffffffffffffffffffffff167fc2b4a290c20fb28939d29f102514fbffd2b73c059ffba8b78250c94161d5fcc6858460405161138d929190612d11565b60405180910390a3505050565b6113a2612125565b600260008473ffffffffffffffffffffffffffffffffffffffff1673ffffffffffffffffffffffffffffffffffffffff1681526020019081526020016000206000838152602001908152602001600020604051806060016040529081600082015481526020016001820160009054906101000a900473ffffffffffffffffffffffffffffffffffffffff1673ffffffffffffffffffffffffffffffffffffffff1673ffffffffffffffffffffffffffffffffffffffff168152602001600282015481525050905092915050565b611477611fd3565b73ffffffffffffffffffffffffffffffffffffffff16611495611c94565b73ffffffffffffffffffffffffffffffffffffffff16146114eb576040517f08c379a00000000000000000000000000000000000000000000000000000000081526004016114e290612760565b60405180910390fd5b565b600160008373ffffffffffffffffffffffffffffffffffffffff1673ffffffffffffffffffffffffffffffffffffffff1681526020019081526020016000206000828152602001908152602001600020604051806101000160405290816000820160009054906101000a900473ffffffffffffffffffffffffffffffffffffffff1673ffffffffffffffffffffffffffffffffffffffff1673ffffffffffffffffffffffffffffffffffffffff1681526020016001820160009054906101000a900473ffffffffffffffffffffffffffffffffffffffff1673ffffffffffffffffffffffffffffffffffffffff1673ffffffffffffffffffffffffffffffffffffffff1681526020016002820154815260200160038201805461160f906128d3565b80601f016020809104026020016040519081016040528092919081815260200182805461163b906128d3565b80156116885780601f1061165d57610100808354040283529160200191611688565b820191906000526020600020905b81548152906001019060200180831161166b57829003601f168201915b505050505081526020016004820160009054906101000a900460ff1615151515815260200160058201548152602001600682015481526020016007820160009054906101000a900460ff1660038111156116e5576116e461258d565b5b60038111156116f7576116f661258d565b5b8152505060008160c001511415611743576040517f08c379a000000000000000000000000000000000000000000000000000000000815260040161173a90612d86565b60405180910390fd5b600060038111156117575761175661258d565b5b8160e00151600381111561176e5761176d61258d565b5b146117ae576040517f08c379a00000000000000000000000000000000000000000000000000000000081526004016117a590612e18565b60405180910390fd5b34600160008573ffffffffffffffffffffffffffffffffffffffff1673ffffffffffffffffffffffffffffffffffffffff168152602001908152602001600020600084815260200190815260200160002060020160008282546118119190612a4a565b9250508190555034600260003373ffffffffffffffffffffffffffffffffffffffff1673ffffffffffffffffffffffffffffffffffffffff1681526020019081526020016000206000848152602001908152602001600020600001600082825461187b9190612a4a565b9250508190555033600260003373ffffffffffffffffffffffffffffffffffffffff1673ffffffffffffffffffffffffffffffffffffffff168152602001908152602001600020600084815260200190815260200160002060010160006101000a81548173ffffffffffffffffffffffffffffffffffffffff021916908373ffffffffffffffffffffffffffffffffffffffff16021790555081600260003373ffffffffffffffffffffffffffffffffffffffff1673ffffffffffffffffffffffffffffffffffffffff1681526020019081526020016000206000848152602001908152602001600020600201819055506000600160008573ffffffffffffffffffffffffffffffffffffffff1673ffffffffffffffffffffffffffffffffffffffff1681526020019081526020016000206000848152602001908152602001600020604051806101000160405290816000820160009054906101000a900473ffffffffffffffffffffffffffffffffffffffff1673ffffffffffffffffffffffffffffffffffffffff1673ffffffffffffffffffffffffffffffffffffffff1681526020016001820160009054906101000a900473ffffffffffffffffffffffffffffffffffffffff1673ffffffffffffffffffffffffffffffffffffffff1673ffffffffffffffffffffffffffffffffffffffff16815260200160028201548152602001600382018054611a90906128d3565b80601f0160208091040260200160405190810160405280929190818152602001828054611abc906128d3565b8015611b095780601f10611ade57610100808354040283529160200191611b09565b820191906000526020600020905b815481529060010190602001808311611aec57829003601f168201915b505050505081526020016004820160009054906101000a900460ff1615151515815260200160058201548152602001600682015481526020016007820160009054906101000a900460ff166003811115611b6657611b6561258d565b5b6003811115611b7857611b7761258d565b5b815250509050428160c0015111158015611ba6575080608001518015611ba5575080604001518160a00151115b5b15611c28576003600160008673ffffffffffffffffffffffffffffffffffffffff1673ffffffffffffffffffffffffffffffffffffffff168152602001908152602001600020600085815260200190815260200160002060070160006101000a81548160ff02191690836003811115611c2257611c2161258d565b5b02179055505b828473ffffffffffffffffffffffffffffffffffffffff163373ffffffffffffffffffffffffffffffffffffffff167faf09e3ada607a2dbf6bfeab2d36d87ba8c79317b64746947f00a25b74cbb289434604051611c869190612a2f565b60405180910390a450505050565b60008060009054906101000a900473ffffffffffffffffffffffffffffffffffffffff16905090565b611cc561215c565b600160008473ffffffffffffffffffffffffffffffffffffffff1673ffffffffffffffffffffffffffffffffffffffff1681526020019081526020016000206000838152602001908152602001600020604051806101000160405290816000820160009054906101000a900473ffffffffffffffffffffffffffffffffffffffff1673ffffffffffffffffffffffffffffffffffffffff1673ffffffffffffffffffffffffffffffffffffffff1681526020016001820160009054906101000a900473ffffffffffffffffffffffffffffffffffffffff1673ffffffffffffffffffffffffffffffffffffffff1673ffffffffffffffffffffffffffffffffffffffff16815260200160028201548152602001600382018054611de7906128d3565b80601f0160208091040260200160405190810160405280929190818152602001828054611e13906128d3565b8015611e605780601f10611e3557610100808354040283529160200191611e60565b820191906000526020600020905b815481529060010190602001808311611e4357829003601f168201915b505050505081526020016004820160009054906101000a900460ff1615151515815260200160058201548152602001600682015481526020016007820160009054906101000a900460ff166003811115611ebd57611ebc61258d565b5b6003811115611ecf57611ece61258d565b5b81525050905092915050565b611ee3611fd3565b73ffffffffffffffffffffffffffffffffffffffff16611f01611c94565b73ffffffffffffffffffffffffffffffffffffffff1614611f57576040517f08c379a0000000000000000000000000000000000000000000000000000000008152600401611f4e90612760565b60405180910390fd5b600073ffffffffffffffffffffffffffffffffffffffff168173ffffffffffffffffffffffffffffffffffffffff161415611fc7576040517f08c379a0000000000000000000000000000000000000000000000000000000008152600401611fbe90612eaa565b60405180910390fd5b611fd081611fdb565b50565b600033905090565b60008060009054906101000a900473ffffffffffffffffffffffffffffffffffffffff169050816000806101000a81548173ffffffffffffffffffffffffffffffffffffffff021916908373ffffffffffffffffffffffffffffffffffffffff1602179055508173ffffffffffffffffffffffffffffffffffffffff168173ffffffffffffffffffffffffffffffffffffffff167f8be0079c531659141344cd1fd0a4f28419497f9722a3daafe3b4186f6b6457e060405160405180910390a35050565b8280546120ab906128d3565b90600052602060002090601f0160209004810192826120cd5760008555612114565b82601f106120e657805160ff1916838001178555612114565b82800160010185558215612114579182015b828111156121135782518255916020019190600101906120f8565b5b50905061212191906121e1565b5090565b604051806060016040528060008152602001600073ffffffffffffffffffffffffffffffffffffffff168152602001600081525090565b604051806101000160405280600073ffffffffffffffffffffffffffffffffffffffff168152602001600073ffffffffffffffffffffffffffffffffffffffff16815260200160008152602001606081526020016000151581526020016000815260200160008152602001600060038111156121db576121da61258d565b5b81525090565b5b808211156121fa5760008160009055506001016121e2565b5090565b600080fd5b600080fd5b600073ffffffffffffffffffffffffffffffffffffffff82169050919050565b600061223382612208565b9050919050565b61224381612228565b811461224e57600080fd5b50565b6000813590506122608161223a565b92915050565b6000819050919050565b61227981612266565b811461228457600080fd5b50565b60008135905061229681612270565b92915050565b600080604083850312156122b3576122b26121fe565b5b60006122c185828601612251565b92505060206122d285828601612287565b9150509250929050565b600080fd5b600080fd5b600080fd5b60008083601f840112612301576123006122dc565b5b8235905067ffffffffffffffff81111561231e5761231d6122e1565b5b60208301915083600182028301111561233a576123396122e6565b5b9250929050565b60008115159050919050565b61235681612341565b811461236157600080fd5b50565b6000813590506123738161234d565b92915050565b60008060008060008060a08789031215612396576123956121fe565b5b60006123a489828a01612251565b965050602087013567ffffffffffffffff8111156123c5576123c4612203565b5b6123d189828a016122eb565b955095505060406123e489828a01612364565b93505060606123f589828a01612287565b925050608061240689828a01612287565b9150509295509295509295565b600060208284031215612429576124286121fe565b5b600061243784828501612287565b91505092915050565b61244981612266565b82525050565b61245881612228565b82525050565b6060820160008201516124746000850182612440565b506020820151612487602085018261244f565b50604082015161249a6040850182612440565b50505050565b60006060820190506124b5600083018461245e565b92915050565b6124c481612228565b82525050565b60006020820190506124df60008301846124bb565b92915050565b600081519050919050565b600082825260208201905092915050565b60005b8381101561251f578082015181840152602081019050612504565b8381111561252e576000848401525b50505050565b6000601f19601f8301169050919050565b6000612550826124e5565b61255a81856124f0565b935061256a818560208601612501565b61257381612534565b840191505092915050565b61258781612341565b82525050565b7f4e487b7100000000000000000000000000000000000000000000000000000000600052602160045260246000fd5b600481106125cd576125cc61258d565b5b50565b60008190506125de826125bc565b919050565b60006125ee826125d0565b9050919050565b6125fe816125e3565b82525050565b60006101008301600083015161261d600086018261244f565b506020830151612630602086018261244f565b5060408301516126436040860182612440565b506060830151848203606086015261265b8282612545565b9150506080830151612670608086018261257e565b5060a083015161268360a0860182612440565b5060c083015161269660c0860182612440565b5060e08301516126a960e08601826125f5565b508091505092915050565b600060208201905081810360008301526126ce8184612604565b905092915050565b6000602082840312156126ec576126eb6121fe565b5b60006126fa84828501612251565b91505092915050565b600082825260208201905092915050565b7f4f776e61626c653a2063616c6c6572206973206e6f7420746865206f776e6572600082015250565b600061274a602083612703565b915061275582612714565b602082019050919050565b600060208201905081810360008301526127798161273d565b9050919050565b7f5468652063616d706169676e20697320616c72656164792073757370656e646560008201527f642c2061207374617465206368616e67652069736e2774206e65656465640000602082015250565b60006127dc603e83612703565b91506127e782612780565b604082019050919050565b6000602082019050818103600083015261280b816127cf565b9050919050565b7f5468652063616d706169676e20697320636c6f7365642c20612073746174652060008201527f6368616e67652069736e277420616c6c6f776564000000000000000000000000602082015250565b600061286e603483612703565b915061287982612812565b604082019050919050565b6000602082019050818103600083015261289d81612861565b9050919050565b7f4e487b7100000000000000000000000000000000000000000000000000000000600052602260045260246000fd5b600060028204905060018216806128eb57607f821691505b602082108114156128ff576128fe6128a4565b5b50919050565b7f56616c75652063616e277420626520726566756e646564207768696c6520436160008201527f6d706169676e2069736e277420696e2045787069726564206f7220537573706560208201527f6e64656420737461746500000000000000000000000000000000000000000000604082015250565b6000612987604a83612703565b915061299282612905565b606082019050919050565b600060208201905081810360008301526129b68161297a565b9050919050565b7f4e487b7100000000000000000000000000000000000000000000000000000000600052601160045260246000fd5b60006129f782612266565b9150612a0283612266565b925082821015612a1557612a146129bd565b5b828203905092915050565b612a2981612266565b82525050565b6000602082019050612a446000830184612a20565b92915050565b6000612a5582612266565b9150612a6083612266565b9250827fffffffffffffffffffffffffffffffffffffffffffffffffffffffffffffffff03821115612a9557612a946129bd565b5b828201905092915050565b7f546865207370656369666965642065787069726174696f6e2064617465206f6660008201527f207468652063616d706169676e2073686f756c64206265206174206c6561737460208201527f206f6e6520646179206c6f6e6700000000000000000000000000000000000000604082015250565b6000612b22604d83612703565b9150612b2d82612aa0565b606082019050919050565b60006020820190508181036000830152612b5181612b15565b9050919050565b7f5f62656e65666963696172793a2042656e65666963696172792063616e27742060008201527f626520746865207a65726f206164647265737300000000000000000000000000602082015250565b6000612bb4603383612703565b9150612bbf82612b58565b604082019050919050565b60006020820190508181036000830152612be381612ba7565b9050919050565b6000612bf582612266565b91507fffffffffffffffffffffffffffffffffffffffffffffffffffffffffffffffff821415612c2857612c276129bd565b5b600182019050919050565b7f4d696e696d756d207261697365642056616c756520697320726571756972656460008201527f20616e64206e6f74207965742072656163686564206f72207468652063616d7060208201527f6169676e2069736e2774206163746976652c206f722063616c6c65722069736e60408201527f2774207468652063616d706169676e206f776e65722000000000000000000000606082015250565b6000612cdb607683612703565b9150612ce682612c33565b608082019050919050565b60006020820190508181036000830152612d0a81612cce565b9050919050565b6000604082019050612d266000830185612a20565b612d336020830184612a20565b9392505050565b7f43616d706169676e20646f65736e277420657869737400000000000000000000600082015250565b6000612d70601683612703565b9150612d7b82612d3a565b602082019050919050565b60006020820190508181036000830152612d9f81612d63565b9050919050565b7f43616d706169676e2069736e277420696e20616e20616374697665207374617460008201527f6500000000000000000000000000000000000000000000000000000000000000602082015250565b6000612e02602183612703565b9150612e0d82612da6565b604082019050919050565b60006020820190508181036000830152612e3181612df5565b9050919050565b7f4f776e61626c653a206e6577206f776e657220697320746865207a65726f206160008201527f6464726573730000000000000000000000000000000000000000000000000000602082015250565b6000612e94602683612703565b9150612e9f82612e38565b604082019050919050565b60006020820190508181036000830152612ec381612e87565b905091905056fea26469706673582212201c1450125aa0c6914a5525b96c9cefc7fd86eaf464fb92bbe1b397d975f19aa464736f6c634300080b0033",
  "immutableReferences": {},
  "source": "// SPDX-License-Identifier: MIT\n\npragma solidity 0.8.11;\n\n/// @title A title that should describe the contract/interface\n/// @author The name of the author\n/// @notice Explain to an end user what this does\n/// @dev Explain to a developer any extra details\n\nimport \"openzeppelin-solidity/contracts/access/Ownable.sol\";\n\n// Reminders\n// create an event that notifies the listeners after withdraw or creation of a campaign  \n// function that return all compaign belong to an address;\n// For gas optimization, the logic for user contracts, or user contribution should be done outside the blockchain by searching campaign or contribution\n\n\ncontract Kvestado is Ownable{\n\n    constructor() {\n        super;\n    }\n    \n    //************ State Variables ************\\\\\n\n   // To find the campaigns by owner address and the id of the campaign\n   mapping(address => mapping(uint => Campaign)) private campaign;\n   // To find contribution by Contributor address and id of the campaign \n   mapping(address => mapping(uint => Contribution)) private contribution;\n   // campaign id should be returned after the creation of the campaign\n   uint private campaignIdCounter = 1; \n\n\n   struct Campaign {\n        address owner; \n        address beneficiary; // the owner of the compaign can be the same as the beneficiary.\n        uint raisedValue;    // \n        string campaignUrl; // official website of the compaign\n        bool hasMinimumRaisedValue; // if true withdraw will be allowed if and only if minimum raised reached otherwise refund will be triggered\n        uint minimumRaisedValue;  // if hasMinimumRaisedValue is true\n        uint expireAfter; // if the date is exceeded the compaign is expired (Unix epoch time)\n        State state;\n    }\n   \n    enum State {\n        ACTIVE,\n        // if the entire raised value is withdrawn\n        CLOSED,\n        // if policy not respected\n        SUSPENDED,\n        // if expireAfter date is exceeded and minimumRaisedValue not rechead\n        EXPIRED\n    }\n\n    struct Contribution {\n        uint amount;\n        // in case of refund, the amount should be refunded\n        address contributor;\n        uint campaignId;\n    }\n     \n     //************ Functions ************\\\\\n     \n     function getCampaign(address _campainOwner ,uint _campaignId) view external returns (Campaign memory _campaign){\n      return campaign[_campainOwner][_campaignId];\n     }\n\n     function getContribution(address _contributor, uint _campaignId) view external returns (Contribution memory _contribution){\n      return contribution[_contributor][_campaignId];\n     }\n\n     // The withdrawal can be made only by the campaign owner and the amount will be sent to the beneficiary's address\n     // ownership checks isn't required, as the campaign is only found using the owner's address\n     function withdraw(uint _campaignId) external minValueCheck(campaign[msg.sender][_campaignId]) \n      {\n\n         payable(campaign[msg.sender][_campaignId].beneficiary).transfer(campaign[msg.sender][_campaignId].raisedValue); \n\n         uint withdrawnAmount = campaign[msg.sender][_campaignId].raisedValue;    \n\n        //  campaign[msg.sender][_campaignId].raisedValue = 0;\n         campaign[msg.sender][_campaignId].state = State.CLOSED;\n\n         emit Withdrawal(msg.sender, campaign[msg.sender][_campaignId].beneficiary, _campaignId, withdrawnAmount);\n     }\n\n     \n     //\n     function addCampaign(address _beneficiary, string calldata _campaignUrl,\n                           bool _hasMinimumRaisedValue, uint _minimumRaisedValue, uint _expireAfter) dateCheck(_expireAfter) external{\n     \n     require(_beneficiary != address(0), \"_beneficiary: Beneficiary can't be the zero address\");\n\n     campaign[msg.sender][campaignIdCounter]  = Campaign({\n             owner: msg.sender\n            ,beneficiary: _beneficiary\n            ,raisedValue: 0\n            ,campaignUrl: _campaignUrl\n            ,hasMinimumRaisedValue: _hasMinimumRaisedValue\n            ,minimumRaisedValue: _minimumRaisedValue\n            ,expireAfter: _expireAfter\n            ,state: State.ACTIVE });\n\n       emit MyCampaign(msg.sender, campaignIdCounter++);\n     }\n      \n      // Contribution allowed only for active campaign\n      function contribute(address _campaignOwner, uint _campaignId) contributionCheck(campaign[_campaignOwner][_campaignId]) payable external {\n              \n               \n               // Increase campain Balance\n               campaign[_campaignOwner][_campaignId].raisedValue += msg.value;\n               // Assign contribution\n               contribution[msg.sender][_campaignId].amount += msg.value;\n               contribution[msg.sender][_campaignId].contributor = msg.sender;\n               contribution[msg.sender][_campaignId].campaignId = _campaignId;\n\n          // To update campaign state in case of:\n          // if \"expireAfter\" date passed and minimumRaisedValue not rechead\n          Campaign memory _campaign = campaign[_campaignOwner][_campaignId];\n          if(_campaign.expireAfter <= block.timestamp \n          && (_campaign.hasMinimumRaisedValue && _campaign.minimumRaisedValue > _campaign.raisedValue ))\n                {             \n                campaign[_campaignOwner][_campaignId].state = State.EXPIRED;\n                }\n\n       emit MyContribution(msg.sender, _campaignOwner, _campaignId, msg.value);\n       }\n\n       \n       // To allow existing contributors to a campaign to withdraw their contribution.\n       // Gas fees are charged for the withdrawal, therefor please check the status of the campaign before calling the function.\n       // Withdrawal allowed only if the campaign is in SUSPENDED or EXPIRED state. \n       function refundClaim (address _campaignOwnerAddress ,uint _campaignId) external refundCheck(campaign[_campaignOwnerAddress][_campaignId]) {\n       \n        // Refund amount to the contributor\n        payable(contribution[msg.sender][_campaignId].contributor).transfer(contribution[msg.sender][_campaignId].amount);\n        // Reduce transfered amount from raisedValue for the campaign\n        campaign[_campaignOwnerAddress][_campaignId].raisedValue -= contribution[msg.sender][_campaignId].amount;\n        // Reset contributor amount to 0\n        uint refundedAmount = contribution[msg.sender][_campaignId].amount;\n        contribution[msg.sender][_campaignId].amount = 0;\n\n        emit RefundedAmount(_campaignOwnerAddress, _campaignId, msg.sender, refundedAmount);\n       }\n\n     // Put a campaign in suspend mode in the event of a reported violation,\n     // and refund for contributors will be enabled through refundClaim function\n     function suspendCampaign(address _campaignOwner, uint _campaignId ) external onlyOwner{\n        \n        require(campaign[_campaignOwner][_campaignId].state == State.SUSPENDED,\n         \"The campaign is already suspended, a state change isn't needed\");\n\n        require(campaign[_campaignOwner][_campaignId].state != State.CLOSED,\n         \"The campaign is closed, a state change isn't allowed\");\n        \n        campaign[_campaignOwner][_campaignId].state = State.SUSPENDED;\n        emit SuspendedCampaign(_campaignOwner, _campaignId);\n     } \n       \n\n        // The Contract should always have an owner\n        function renounceOwnership() public override onlyOwner {}\n\n\n        //************ Events ************\\\\ \n        event MyCampaign(address indexed _campaignOwner, uint _campaignId);\n        event MyContribution(address indexed _contributor, address indexed _campaignOwner,uint indexed _campaignId, uint amount);\n        event SuspendedCampaign(address indexed _campaignOwner, uint indexed _campaignId);\n        event RefundedAmount(address indexed _campaignOwner, uint indexed _campaignId,address indexed _contributor, uint amount);\n        event Withdrawal(address indexed _campaignOwner, address indexed _campaignBeneficiary, uint _campaignId, uint amount);\n\n        //************ Modifiers ************\\\\\n\n       // Check before withdrawing\n    modifier minValueCheck(Campaign memory _campaign) {\n         require(_campaign.state == State.ACTIVE && _campaign.owner == msg.sender &&\n         ((_campaign.hasMinimumRaisedValue && _campaign.raisedValue >= _campaign.minimumRaisedValue)\n         ||!_campaign.hasMinimumRaisedValue)\n         , \"Minimum raised Value is required and not yet reached or the campaign isn't active, or caller isn't the campaign owner \" );\n          \n         // To run the body of the function from which this modifier is called\n         _;\n     }\n\n     // check before refund\n     modifier refundCheck(Campaign memory _campaign) {\n         require(_campaign.state == State.EXPIRED || _campaign.state == State.SUSPENDED \n         , \"Value can't be refunded while Campaign isn't in Expired or Suspended state\" );\n          \n         // To run the body of the function from which this modifier is called\n         _;\n     }\n\n     modifier dateCheck(uint time) {\n         require(time >= (block.timestamp + 86400) \n         , \"The specified expiration date of the campaign should be at least one day long\" );\n          \n         // To run the body of the function from which this modifier is called\n         _;\n     }\n\n    modifier contributionCheck(Campaign memory _campaign) {\n         \n         require(_campaign.expireAfter != 0, \"Campaign doesn't exist\");\n         require(_campaign.state == State.ACTIVE, \"Campaign isn't in an active state\");\n                \n         // To run the body of the function from which this modifier is called\n         _;\n\n     }\n\n \n\n}",
  "sourcePath": "/home/adnan/Documents/VSCode-Workspace/crowdfunding/contracts/Kvestado.sol",
  "compiler": {
    "name": "solc",
    "version": "0.8.11+commit.d7f03943.Emscripten.clang"
  },
  "schemaVersion": "3.4.5",
  "updatedAt": "2022-04-13T23:21:06.171Z",
  "networkType": "ethereum",
  "devdoc": {
    "kind": "dev",
    "methods": {
      "owner()": {
        "details": "Returns the address of the current owner."
      },
      "renounceOwnership()": {
        "details": "Leaves the contract without owner. It will not be possible to call `onlyOwner` functions anymore. Can only be called by the current owner. NOTE: Renouncing ownership will leave the contract without an owner, thereby removing any functionality that is only available to the owner."
      },
      "transferOwnership(address)": {
        "details": "Transfers ownership of the contract to a new account (`newOwner`). Can only be called by the current owner."
      }
    },
    "version": 1
  },
  "userdoc": {
    "kind": "user",
    "methods": {},
    "version": 1
  }
}